:02000002B0004C
:1040000000400B00808F0B00000006000C00050232
:0840100004010410000000008F
:044018001C860B00F7
:10401C0009480A49884208B505D0094A824202D0AB
:10402C00121A04F02DF90748074A0021121A04F05D
:10403C004FF9014808BD00BF8CE50320D88E0B005A
:10404C000CE603200CE60320EDE7032070B5074EC9
:10405C00074C03F055FAA41BA4080025AC4200D170
:10406C0070BD56F8043B98470135F7E7808E0B007E
:10407C00A48E0B0000F042B908B500F061F8BDE861
:10408C00084003F0F5B900F055BE00F053BE00F047
:10409C0059BE000008B5034A03490C2000F096FDF8
:1040AC00FEE700BFC5480B0030860B000078B0FA65
:1040BC0080F0400970470123037070477047006A15
:1040CC000368DB68184700000A4B10B50446036010
:1040DC0002F084FB214602F0BCFD03F01DFB03F053
:1040EC000FFB2046044B40F8043B02F04DFC2046ED
:1040FC0010BD00BFB8870B00A0870B0010B504469D
:10410C00FFF7E2FF20462421FFF7C1FF204610BD38
:10411C000EB400B58CB00DAA4FF0200C52F8041B55
:10412C000392CDE900120023016804AA1E20CDE9F8
:10413C0004C300F05BFD0CB05DF804EB03B07047FA
:10414C0090B591B000AF00F0BFFB334A136841F259
:10415C008731C31A8B4259D9106001F001FB01F071
:10416C0059FB002852D02D49384600F0C8FE2B4987
:10417C0007F1100000F0C3FE294B1B786C46002B96
:10418C0047D02849384600F01CFF274907F110009A
:10419C0000F0FDFE394607F1300000F007FF23491F
:1041AC0007F1300000F042FF07F1100100F032FF80
:1041BC00014607F1200000F0F9FE07F1300000F095
:1041CC0053FEBA6A02F1080323F00703ADEB030DAB
:1041DC0069460023013207F1200000F04EFF002356
:1041EC006946BA6A124801F0ABF93A6A11491248A9
:1041FC00FFF78EFF07F1200000F036FE07F11000EC
:10420C0000F032FE384600F02FFEA5464437BD467E
:10421C0090BD0A49B6E700BF28E603202C8A0B00A4
:10422C0024E603207C860B0060E6032045860B0009
:10423C0050E6032048860B00ACE6032086860B0074
:10424C0070B590B001F08CFA01F0D4FA01F088FA54
:10425C00264A274C01460BA801F0CEFF0BA801F013
:10426C0088FB01F07DFA234A01460BA801F0C4FF3C
:10427C000BA801F07EFB01F073FA1F4A01460BA854
:10428C0001F0BAFF0BA801F074FB03A801F0A7FC26
:10429C000FCC06AD0FC506AD0FCD26680BAC0FC409
:1042AC000BA8266001F070F804460BA8B4B901F015
:1042BC0087F80094ADF80A0002230DF10A020321DD
:1042CC0003A801F081FC01F04BFA002203A901F0D4
:1042DC00F4FA039800F036FD10B070BD01F072F8DE
:1042EC0000230093024610230721E9E770E6032020
:1042FC0010E6032058E6032050E6032008B5094BCE
:10430C000121188803F0DAFD074B0121188803F00E
:10431C00D5FD064B0121188803F0D0FDBDE80840FF
:10432C00FFF78EBF8CE5032090E5032094E5032076
:10433C0037B5244B1978002935D02349234800F090
:10434C008AFE054688B1224B0121188803F0C7FD6F
:10435C000021204B188803F0C2FD00211E4B188849
:10436C0003B0BDE8304003F0BABD1C49174800F05B
:10437C0072FE044630B1164B2946188803F0AFFD87
:10438C000121E6E71649114800F065FEB8B1104B63
:10439C002146188803F0A3FD0E4B2146188803F024
:1043AC009EFD0121DAE70A4B0191188803F097FD75
:1043BC00084B0199188803F092FD0199CEE703B0E0
:1043CC0030BD00BF24E6032066860B0060E60320A8
:1043DC0094E5032090E503208CE503206A860B000E
:1043EC0070860B001FB50A460146684600F09BFD1F
:1043FC001049684600F02FFE044658B10E4B0F4989
:10440C000F4801221A70FFF783FE684600F02CFD5E
:10441C0004B010BD0B49684600F01DFE0028F4D016
:10442C00054B094906481C70FFF772FEFFF780FF29
:10443C00EBE700BF7C860B0024E6032075860B009F
:10444C00ACE6032086860B007F860B001FB50A4660
:10445C000146684600F067FD12491348009AFFF7C1
:10446C0057FE1249684600F0F6FD58B10F49104846
:10447C0000F0A7FDFFF75CFF684600F0F5FC05B007
:10448C005DF804FB0B49684600F0E5FD08B10949ED
:10449C00EDE70949684600F0DEFD08B10649E6E79C
:1044AC000649E4E78A860B00ACE6032066860B001F
:1044BC0060E603206A860B0070860B0086860B0074
:1044CC002DE9F047144694B005460E463C483D494C
:1044DC001F46FFF71DFE214606A801F0D7F8002164
:1044EC0006A800F0D9FE2146059008A801F0CEF8E8
:1044FC00012108A800F0D0FE214604900AA801F082
:10450C00C5F802210AA800F0C7FE214680460CA877
:10451C0001F0BCF803210CA800F0BEFE2146814638
:10452C000EA801F0B3F804210EA800F0B5FE214648
:10453C00824610A801F0AAF8052110A800F0ACFEE4
:10454C00DDE90432CDE902A01F491D48CDE90089FF
:10455C00FFF7DEFD2946324610A800F0E4FC1B49AB
:10456C0010A800F078FDB0B13B46224631462846F3
:10457C00FFF738FF164910A800F06DFD90B13B46CF
:10458C00224631462846FFF761FF10A800F06CFC6C
:10459C0014B0BDE8F0870F4910A800F05CFD0028AE
:1045AC00E2D1E7E70C4910A800F055FD0028E6D150
:1045BC000A4910A800F04FFD0028E0D1E5E700BF44
:1045CC00ACE603209D860B00AE860B007C860B00B0
:1045DC0066860B0086860B006A860B0070860B00C5
:1045EC0070B5D0E900531426044606FB0356AE42C0
:1045FC0004D0284600F038FC1435F8E7206800F0A9
:10460C00A1FB204670BD2DE9F04190468EB00022F2
:10461C000646C0E900220F4604A8194614AD00F066
:10462C0051FF0FCD09AC0FC42B6823601A9B02936A
:10463C00199B019309AB0093304604AB42463946B3
:10464C0001F0B0FC30460EB0BDE8F0818842F8B500
:10465C0004460D46164616D9904215D2A2F1140600
:10466C00751AA1F114072C44B7421CD02CB1314659
:10467C00204600F081FC337C2374304600F0F4FBC0
:10468C00143E143CF0E70ED0B5420CD02CB12946A8
:10469C00204600F071FC2B7C2374284600F0E4FBD0
:1046AC0014351434F0E7F8BD2DE9F0410023C0E9CE
:1046BC00003383604F689F4204460E4623DD4FF063
:1046CC00140808FB07F000F035FB0546D8B1D4E917
:1046DC00001208FB0212FFF7B9FF206800F032FB52
:1046EC002560A760D6E9007308FB0378B84508D0AD
:1046FC003946284600F05AFC3B7C2B741437143591
:10470C00F4E7736863602046BDE8F0812DE9F0435F
:10471C0095B00026CDE908660A9602F0FDFF3B4CE9
:10472C00DFF83091054608A90BA8FFF7BDFF274617
:10473C000BA90EA8FFF7B8FF354B47F8043B0EA9A1
:10474C0011A8FFF7B1FF11AA1E21384602F064FB35
:10475C0011A8FFF745FF0EA8FFF742FF2D4B236072
:10476C0025620BA8FFF73CFF2B4B236002F0D4FF14
:10477C004FF4165102F0C0FF02F030F8214602F05F
:10478C0021FA08A8FFF72CFF3146012000F04EFA61
:10479C0000F09AF8214C224B22491860204600F078
:1047AC0091FE25460696CDF814900FCD6F460FC797
:1047BC004FF004082B683B6042461B4B1B491C48BE
:1047CC00FFF721FFCDE90596A446BCE80F006F4624
:1047DC000FC72B683B604246164B17491748FFF72B
:1047EC0012FFCDE905660FCC6E460FC62B68336001
:1047FC001349144B14484FF01002FFF704FF1349F0
:10480C00134815B0BDE8F04300F079BB2CE603204B
:10481C00A0870B00648A0B00B8870B0010E60320FE
:10482C000CE60320E1860B0006870B002B870B00A0
:10483C0070E6032035870B005A870B0058E60320DF
:10484C008B870B0066870B0050E603207F880B00DC
:10485C0060E60320CD440B0008B5024B1B689B6837
:10486C00019308BD6802030008B5024B1B68DB68A6
:10487C00019308BD6802030008B5024B1B689B68D6
:10488C00019308BD2C02030008B5024B1B68DB68C2
:10489C00019308BD2C02030008B5024B1B681B6971
:1048AC00019308BD2C02030008B5024B1B685B6822
:1048BC00019308BD1802030008B5024B1B68DB68A6
:1048CC00019308BD1802030008B5024B1B685B6915
:1048DC00019308BD1802030008B5024B1B689B68C6
:1048EC00019308BD7802030008B5024B1B681B6DD1
:1048FC00019308BD7802030008B5024B1B689B6D41
:10490C00019308BD7802030008B5024B1B681B6EAF
:10491C00019308BD7802030008B5034B1B68D3F85C
:10492C009830019308BD00007802030008B5034BD2
:10493C001B68D3F8A830019308BD0000780203006F
:10494C0008B5034B1B68D3F8B430019308BD0000C5
:10495C007802030008B5034B1B68D3F8D8300193D9
:10496C0008BD00007802030008B5034B1B68D3F8A0
:10497C00DC30019308BD00007802030008B5034B3E
:10498C001B68D3F8EC30019308BD000078020300DB
:10499C0008B5034B1B68D3F8F030019308BD000039
:1049AC007802030008B5034B1B68D3F80031019360
:1049BC0008BD00007802030008B5034B1B68D3F850
:1049CC000431019308BD00007802030008B5024BC6
:1049DC001B685B6C019308BD4802030008B5024BD1
:1049EC001B689B6C019308BD4802030008B5024B81
:1049FC001B68DB6C019308BD4802030008B5024B31
:104A0C001B685B6D019308BD4802030008B5024B9F
:104A1C001B685B69019308BD6402030008B5024B77
:104A2C001B689B68019308BD3C02030008B5024B50
:104A3C001B68DB68019308BD3C02030008B5024B00
:104A4C001B681B69019308BD3C02030008B5024BAF
:104A5C001B685B69019308BD3C02030008B5024B5F
:104A6C001B689B69019308BD3C02030008B5024B0F
:104A7C001B68DB69019308BD3C02030008B5024BBF
:104A8C001B681B6A019308BD3C02030008B5024B6E
:104A9C001B689B6A019308BD3C02030008B5024BDE
:104AAC001B68DB6A019308BD3C02030008B5024B8E
:104ABC001B681B6C019308BD3C02030008B5024B3C
:104ACC001B681B6A019308BD2802030008B5024B42
:104ADC001B685B6A019308BD2802030008B5024BF2
:104AEC001B689B6A019308BD2802030008B5024BA2
:104AFC001B68DB6A019308BD2802030008B5024B52
:104B0C001B681B6B019308BD2802030008B5024B00
:104B1C001B685B6B019308BD2802030008B5024BB0
:104B2C001B681B6C019308BD2802030008B5024BDF
:104B3C001B68DB69019308BD3002030008B5024B0A
:104B4C001B681B6A019308BD3002030008B5024BB9
:104B5C001B681B68019308BD4C02030008B5024B8F
:104B6C001B685B68019308BD4C02030008B5024B3F
:104B7C001B689B68019308BD4C02030008B5024BEF
:104B8C001B681B69019308BD4C02030008B5024B5E
:104B9C001B685B69019308BD4C02030008B5024B0E
:104BAC001B689B69019308BD4C02030008B5024BBE
:104BBC001B68DB69019308BD4C02030008B5024B6E
:104BCC001B681B6A019308BD4C02030008B5024B1D
:104BDC001B685B6B019308BD6002030008B5024BB8
:104BEC001B681B6D019308BD6002030008B5024BE6
:104BFC001B685B6D019308BD6002030008B5024B96
:104C0C001B68DB6E019308BD6002030008B5024B04
:104C1C001B681B6F019308BD6002030008B5024BB3
:104C2C001B685B68019308BD2002030008B5024BAA
:104C3C001B68DB6A019308BD2002030008B5034B17
:104C4C001B68D3F88830019308BD000020020300D4
:104C5C0008B5034B1B68D3F89430019308BD0000D2
:104C6C002002030008B5024B1B685B68019308BD6A
:104C7C004002030008B5024B1B689B68019308BDFA
:104C8C004002030008B5024B1B68DB68019308BDAA
:104C9C004002030008B5024B1B681B69019308BD59
:104CAC004002030008B5024B1B685B69019308BD09
:104CBC004002030008B5024B1B689B69019308BDB9
:104CCC004002030008B5024B1B68DB69019308BD69
:104CDC004002030008B5024B1B681B6A019308BD18
:104CEC004002030008B5024B1B681B6B019308BD07
:104CFC004002030008B5024B1B685B6B019308BDB7
:104D0C004002030008B5024B1B681B6C019308BDE5
:104D1C004002030008B5024B1B685B6C019308BD95
:104D2C004002030008B5024B1B68DB6B019308BD06
:104D3C004402030008B5024B1B681B68019308BDB5
:104D4C001C02030008B5024B1B685B68019308BD8D
:104D5C001C02030008B5024B1B689B68019308BD3D
:104D6C001C02030008B5024B1B685B6A019308BD6B
:104D7C001C02030008B5024B1B68DB6A019308BDDB
:104D8C001C02030008B5024B1B68DB6B019308BDCA
:104D9C001C02030008B5024B1B681B6C019308BD79
:104DAC001C02030008B5024B1B685B6C019308BD29
:104DBC001C020300002240681146FFF78BBF002243
:104DCC0040681146FFF796BF40680022FFF78ABF84
:104DDC004068002281F00101FFF774BF0023406896
:104DEC001A461946FFF766BF002340681A46194653
:104DFC00FFF758BF002240681146FFF74BBF002257
:104E0C0040681146FFF736BF406800220221FFF7C9
:104E1C0039BF002340681A46FFF724BF024B032218
:104E2C005A60024A1A60704778E60320D0870B005C
:104E3C0010B5044608462170FFF778FE0023636026
:104E4C00204610BD054B02221A60054B054A9A609C
:104E5C000020C3E90000FFF7E1BE00BF8CE6032091
:104E6C0080E603200000FFFF10B504460068FFF742
:104E7C0069FF204610BD10B50446006808B1FFF765
:104E8C0061FF0023C4E90133236010BD38B504462B
:104E9C000D4600680131FFF75DFF10B1C4E9000554
:104EAC00012038BD10B50368044623B143688B421A
:104EBC0001D3012010BD2046FFF7E8FF0028F9D0F0
:104ECC00A368002BF5D122681370F2E737B50D46B5
:104EDC00114601920446FFF7E5FF019A28B92046D6
:104EEC00FFF7C9FF204603B030BDA26029462068F9
:104EFC0003F0C6F92268A3680021D154F2E700231D
:104F0C0013B5C0E9003304468360037341B108460E
:104F1C00019103F03CFA019902462046FFF7D6FFB7
:104F2C00204602B010BD002310B5C0E90033044682
:104F3C008360037309B1FFF7C9FF204610BD38B574
:104F4C00054600680C4668B16A688B689A4207D3BC
:104F5C00096803F014FAA368AB600023A36038BDA2
:104F6C00FFF7F0FE23682B6063686B60A368AB608F
:104F7C000023C4E90033F1E710B50023C0E9003386
:104F8C00044683600373FFF7DAFF204610BD8842A6
:104F9C0010B5044605D00B682BB18A681946FFF78B
:104FAC0095FF204610BDFFF766FFFAE710B500230A
:104FBC000446C0E9003383600373FFF7E8FF204623
:104FCC0010BD13B5044659B10846019103F0DFF941
:104FDC00019902462046FFF779FF204602B010BD2A
:104FEC00FFF749FFF9E770B505460E4609B90020F1
:104FFC0070BD6AB1846814442146FFF753FF002842
:10500C00F5D02868AB683146184403F0B8F9AC60A9
:10501C000120EDE710B58A6809680446FFF7E3FF45
:10502C0010B92046FFF727FF204610BD13B50446E4
:10503C0029B92046FFF71FFF204602B010BD0846D5
:10504C00019103F0A4F9019902462046FFF7CBFF2A
:10505C000028EED0F0E708B582683AB921B108789B
:10506C00B0FA80F0400900E0012008BD006809B9E1
:10507C000078F5E703F079F9F2E758B50E462AB156
:10508C0021B18468A34202D300230B7058BDE41AEB
:10509C00013A0168944228BF14461944224630460E
:1050AC0003F091F900233355F0E7704770477047D0
:1050BC0070470000064B994210B500F10C0405D066
:1050CC00084602F0ADFF002808BF0024204610BDA2
:1050DC0094890B00064B994210B500F10C0405D0D5
:1050EC00084602F09DFF002808BF0024204610BD92
:1050FC0094890B00064B994210B500F10C0405D0B5
:10510C00084602F08DFF002808BF0024204610BD81
:10511C0094890B0010B568210446FEF7B8FF2046B1
:10512C0010BD10B528210446FEF7B1FF204610BD76
:10513C0010B530210446FEF7AAFF204610BD6821A9
:10514C00FEF7A5BF2821FEF7A2BF3021FEF79FBFB7
:10515C00F0B50025EC1C8C420DD86E1C445D875DAF
:10516C00974205D12644B14205D31D60601CF0BDA9
:10517C0001342544EEE70020F9E70000024A034918
:10518C000A20FFF723BD00BFC5480B0004880B00A5
:10519C0030B40D4611461A46036809682868D3E9ED
:1051AC000043A44630BC6047012A38B5044602D1FE
:1051BC000B68236003E0022A03D0032A0DD00020E1
:1051CC0038BD08200D68FEF75EFF03460028F0D0BE
:1051DC0095E8030083E80300EBE700680028EED0B5
:1051EC000821FEF754FFEAE710B58368044613B1B3
:1051FC00032201469847204610BD10B5044658308E
:10520C00FFF7F2FF04F14800BDE81040FFF72CBE99
:10521C0010B54368013B0446436063B903689B685F
:10522C009847A368013BA3602BB923682046DB6831
:10523C00BDE81040184710BDA0F13003DAB2092ABE
:10524C0001D818467047A0F16103052B01D85738D7
:10525C007047A0F14103052B94BF37384FF0FF3056
:10526C007047000010B500230370044B0446186807
:10527C00FFF7BCFB01232370204610BD98E60320EA
:10528C0010B5037804461BB1024B1868FFF7B6FB48
:10529C00204610BD98E60320052994BF405C0020F1
:1052AC00704782B00346086849686A4603C26A467A
:1052BC0003CA18601846596002B0704708B5827965
:1052CC008B799A4206D1062202F0CAFFB0FA80F01E
:1052DC00400908BD0020FCE74FF0FF3303608380DA
:1052EC000020704708B50246002101604160FFF7BD
:1052FC00F3FF9171104608BD10B501230361054BF6
:10530C00024603F1100153F8044B42F8044B8B4254
:10531C00F9D110BDA2890B0010B50B460446B1B1F2
:10532C00012A01F110020AD1014653F8040B41F88D
:10533C00040B9342F9D101232361204610BD411E79
:10534C0012F8010D01F8010F9A42F9D1F3E710227E
:10535C0002F0BEFFF1E738B5044615461A46FFF7D2
:10536C00DBFFA581204638BD08B5026922B98089CA
:10537C00003818BF012008BD0249102202F070FF4E
:10538C00F6E700BFC2890B000069704738B50C46C0
:10539C0014220021054602F09BFF23691BB9A38947
:1053AC002B80284638BD01232B7421462B4604F153
:1053BC00100251F8040B43F8040B9142F9D1F0E7B9
:1053CC0080897047704708B502690B699A4206D10B
:1053DC00102202F045FFB0FA80F0400908BD002011
:1053EC00FCE7000001232DE9F3410361344B0C462B
:1053FC000646024603F1100153F8040B42F8040B65
:10540C008B42F9D144B32421204602F0EFFF04284B
:10541C004FF0000523D1ADF8045001AFA51C0634A4
:10542C0015F8020CFFF708FFB0F1000812DB15F8B5
:10543C00010CFFF701FF00280CDB023540EA0810D5
:10544C00A54207F8010BEBD19DF8053033739DF89D
:10545C00043073730023336102B0BDE8F0814FF068
:10546C0010082421204602F0C1FFA84207D842466A
:10547C000021304602B0BDE8F04102F029BFB8F17E
:10548C00000FE9D0605DFFF7D7FE030615D40001CD
:10549C0008F1FF38C7B206F808702421204602F044
:1054AC00A5FF0135A84208D9605DFFF7C5FE40B2E3
:1054BC000028A4BF384306F808000135D1E700BF27
:1054CC00A2890B0013B504460191FFF715FF204686
:1054DC000199FFF787FF204602B010BD38B54FF693
:1054EC00FF730025044643800E2229460570057182
:1054FC00063002F0EDFE04F11400FFF7FDFE04F19E
:10550C002800FFF7F9FE044904F13C00FFF7F7FC13
:10551C006565204638BD00BF2C8A0B0010B5D0E95C
:10552C00063203EBC2029342184606D00468248864
:10553C008C4203F10803F6D110BD0020FCE70000FB
:10554C00F0B5064685B01F460D46002950D0002AFE
:10555C004ED004682378F42A28BFF42243B323796D
:10556C00980709D5A08903920023FFF7E9F90028D1
:10557C00039A03DA05B0F0BD6FF077003468237935
:10558C00D90609D5012F07D0A0890023294605B0DB
:10559C00BDE8F040FFF706BA9B06EBD5022FE9D029
:1055AC00A0890023294605B0BDE8F040FFF704BAF6
:1055BC0060884FF6FF7188421CD021794E0701D5C7
:1055CC00012F04D10B0709D46FF07700D2E7A18922
:1055DC00009313462A46FFF7C7F9CBE7022FF3D007
:1055EC000023A189009313462A46FFF7B3F9C1E7BC
:1055FC000248BFE76FF0D100BCE700BFF2FEFFFF2F
:10560C002DE9F04100260660074628200C46FEF7DF
:10561C003AFD051E05F10C080FD00123C5E9013335
:10562C00084B2B604046FFF767FE0FCC2E6285F8C7
:10563C00246046460FC623683360C7E900853846A8
:10564C00BDE8F08164890B0070B500250560064645
:10565C003020FEF718FD044688B10123C0E9013360
:10566C00094B03604FF6FF7383810E30FFF73AFE50
:10567C00C4E90655C4E90855C4E90A55A575746012
:10568C000C343460304670BD80890B0037B50D4644
:10569C00044601A8FFF7E6FD2A68D2F80230236021
:1056AC00D2F80630636001A8FFF7EAFD204603B08C
:1056BC0030BD30B5054687B00C4601A8FFF7D2FDCA
:1056CC002A68236812881B889A420DD1294602A8A1
:1056DC00FFF7DCFF214604A8FFF7D8FF04A902A8B6
:1056EC00FFF7ECFD044600B9002401A8FFF7C8FD44
:1056FC00204607B030BD000010B504466420FEF70C
:10570C00C2FC68B10023C0E90033C0E90233C0E930
:10571C000433C0E906330362C362C363C364C36565
:10572C00206020B90A4A0B490A20FFF74FFA0020E3
:10573C00FFF7D2F820B1064A07490A20FFF746FACC
:10574C00216806480022FFF723F9204610BD00BF50
:10575C00C5480B0004880B0042880B001D5D0B0034
:10576C0010B50A4C2378BFF35B8FDB070CD42046B3
:10577C00FEF79CFC40B10648FFF7BEFF2046FEF743
:10578C009AFC044802F05EFD014810BD90E603202F
:10579C009CE60320E9590B0030B50368093B012B4B
:1057AC008DB004460D4611D8FFF7DAFFA1880068CA
:1057BC00FFF7B4FE034658B92022CDE904200B4A6A
:1057CC0000920B4904AA3220FFF708FA0DB030BD45
:1057DC006A6D002AFAD0D4E9032105F14C00CDE919
:1057EC000312AC6D04AA03A9A047EFE784880B0051
:1057FC001B880B0008B50020FFF76EF800EAE0707C
:10580C0008BD19B90A460846FFF76EB8D1E9000180
:10581C000022F9E70368D8690028D4BF00200120D2
:10582C00704770B5D0E90053044605EB0316AE4241
:10583C0004D02846FFF718FB1035F8E72068FFF76F
:10584C0081FA204670BD38B5141E4368054602DB4C
:10585C0062189A4200DD5C1A2A68501801191A4421
:10586C00521A02F01BFD6A68121B6A6038BD37B50C
:10587C000A4604460D4601ABD0E90001FFF768FC6F
:10588C00024638B101992046FFF7DDFF2946204634
:10589C00FFF7EDFF03B030BD10B50C4629B90A4631
:1058AC000846BDE81040FFF727B801212046FFF756
:1058BC00DEFFD4E900010022F3E738B504461546B3
:1058CC00FFF79FFF00280ADB29462046FFF7E4FF7D
:1058DC00002804DBBDE838400020FFF715B838BDC0
:1058EC0038B500230446836008200D46FEF7CBFB39
:1058FC0018B12B6803606B684360034BE360034B88
:10590C002060A360204638BD9D510B00B5510B00A3
:10591C000B68036013B15A6801325A60704710B5B6
:10592C0051F8043B044640F8043BFFF7F1FF2368B1
:10593C000BB9FFF723FC204610BD10B551F8043B02
:10594C00044640F8043BFFF7E3FF204610BD10B5BA
:10595C0051F8043B044640F8043BFFF7D9FF2046BE
:10596C0010BD10B50446006808B1FFF751FC204685
:10597C0010BD10B504460430FFF7F3FF204610BDF0
:10598C0070B5D0E90053044605EBC306AE4204D013
:10599C00281DFFF7E6FF0835F8E72068FFF7D2F976
:1059AC00204670BD70B5D0E90053044605EBC30624
:1059BC00AE4204D0281DFFF7D4FF0835F8E7206865
:1059CC00FFF7C0F9204670BD10B504462430FFF730
:1059DC00E9FF04F11800FFF7D3FF10BD70B5174BAA
:1059EC001C6854B304F15400FFF7FEFB04F14400AF
:1059FC00FFF7FAFB04F13400FFF7F6FB04F1240087
:105A0C00FFF7F2FBD4E9065305EBC306AE4204D014
:105A1C00281DFFF7A6FF0835F8E7A069FFF792F9F4
:105A2C0004F10C00FFF7BEFF2046FFF7A9FF20464C
:105A3C006421BDE87040FEF72ABB70BD9CE60320D4
:105A4C0013B50023D1E90042C1E900330368009388
:105A5C0004604368426001A80193FFF782FF02B023
:105A6C0010BD826810B50AB902F0D6FABDE8104034
:105A7C00C368184738B50D1E0446006803DDFFF7F0
:105A8C0069F918B938BDFFF75DF900202060A560F1
:105A9C000120F7E708B583688B4202DAFFF7EAFFCB
:105AAC0008BD0120FCE72DE9F0410F4641681D4679
:105ABC001944836899420446904612DC2668626851
:105ACC003E44D21B3146701902F0E8FB2A4641468F
:105ADC00304602F0D5FB63682B4463600120BDE8BF
:105AEC00F081FFF7C7FF0028E8D1F8E7F8B50D46BD
:105AFC00D0E901139942044616460BDA276862680E
:105B0C007919521B481C02F0C9FB7E55636801339E
:105B1C006360F8BD0131FFF7ADFF0028EED1F8E767
:105B2C000A464168FFF7E2BF2DE9F74304461D46DC
:105B3C000F4601AB90460A46D0E900019DF828902B
:105B4C00FFF706FBAE1C63680246B9F1000F26D1C5
:105B5C0028B333441B1AFF2B09D801992046FFF7B1
:105B6C0072FE616820463144FFF794FF18B96068F3
:105B7C0003B0BDE8F0836A1C0199D2B22046FFF74E
:105B8C00B5FF01993A4601312046FFF7AFFF019965
:105B9C002B46424602312046FFF785FFE7E7F11816
:105BAC00FF29E4D82046FFF775FF0028DFD0691CD9
:105BBC00C9B22046FFF7B4FF39462046FFF7B0FFC5
:105BCC0061682B464246E6E730B49DF808501AB19E
:105BDC00029530BCFFF7A8BF406830BC70471FB5BA
:105BEC000023C0E9003383600622009301238DF863
:105BFC000F2019460DF10F020446FFF7E5FF204672
:105C0C0004B010BD8842F8B504460D46164614D9AA
:105C1C00904213D2A2F10806751AA1F108072C4480
:105C2C00B74218D01CB131462046FFF790FE301D0C
:105C3C00FFF797FE083E083CF2E70CD0B5420AD0BD
:105C4C001CB129462046FFF782FE281DFFF789FE6E
:105C5C0008350834F2E7F8BDF7B5044646686846DF
:105C6C00FFF775FED4E901739F4212DB0137002F59
:105C7C0029DDF800FFF75EF80546F0B1D4E9001213
:105C8C0001EBC202FFF7BEFF2068FFF75BF825604F
:105C9C00A7602368626803EBC60603EBC2023146B9
:105CAC0006F10800FFF7AEFF1EB169463046FFF75C
:105CBC004EFE636801336360012501A8FFF751FEB6
:105CCC00284603B0F0BD0025DEE7F8B5D0E9004367
:105CDC0005460F4604EBC306A64205D039462046BE
:105CEC00FFF7E7FC08B114B9F8BD0834F4E7201D40
:105CFC00FFF737FED5E9003204F1080103EBC202CD
:105D0C002046FFF77FFF6B68013B6B60ECE7000000
:105D1C002DE9F04105468EB003A80C46FFF7A2FA18
:105D2C002E68F31E0D2B3CD8DFE813F00E00530049
:105D3C003B00D1003B003B003B003B003B009B0089
:105D4C009B009B009B009B0004A8FFF77DFC049B21
:105D5C00AA891A806968049808310230FFF7A1FA01
:105D6C0004A906A8FFF7F3FD06A904F11800FFF734
:105D7C0073FF054607A8FFF7F4FD20230693B5B97A
:105D8C005D4B5E49009332202B4606AA0795FEF721
:105D9C0025FF049B29461888FEF7BEFD05A8FFF7D2
:105DAC00E0FD03A8FFF76CFA0EB0BDE8F081544A91
:105DBC00009200235149079306AA0120FEF70EFF1B
:105DCC00E36A002BEAD004A904F12400FFF749FE92
:105DDC00E4E7A9892046FFF7A1FB06460028E0D09E
:105DEC000568D5E906324FF6FF71298003EBC20234
:105DFC009A4203D053F8080B4180F9E7D5E90373B5
:105E0C0007EBC308B84504D0381DFFF7AAFD0837C7
:105E1C00F8E700232B61D5E9067307EBC308B845F7
:105E2C0004D0381DFFF79DFD0837F8E70023EB6120
:105E3C00AB72E36B23B1314604F13400FFF711FE72
:105E4C00314604F11800FFF740FF20220023CDE972
:105E5C0006232C4A0092294906AA0120FEF7BEFE11
:105E6C009FE7A9892046FFF759FB002899D0E36CDE
:105E7C00002B96D000230D2EADF8163001D0102E2D
:105E8C0017D1002369681A4606258DF81530049140
:105E9C008DF814200690DDE9040109AB8DF81C6027
:105EAC00089583E80300236D06A904F14400984784
:105EBC0077E70F2E01BF2B7A696803F001020825E2
:105ECC000FBFC3F340031A4619461D46DDE7A989E7
:105EDC002046FFF723FB014600283FF462AFE36D39
:105EEC00002B3FF45EAF6B68069306AA236E04F199
:105EFC005400984755E700BF9C880B001B880B008B
:105F0C00C2880B00DF880B0013B50B460246D0E9A4
:105F1C0000016C4684E8030093E8030082E8030068
:105F2C0094E8030083E8030002B010BD38B50546C1
:105F3C000C46FFF7E9FFAB68A268AA60A360EB68A8
:105F4C00E268EA60E36038BD70B504468CB00E467A
:105F5C0001921D46FFF7C2FA2671019904F13C002B
:105F6C00FFF72FF804F14C06CDB1109B029502A956
:105F7C0004A80393FFF7B4FC002308A904A80A9310
:105F8C00FFF7D4FF314608A8FFF7D0FF08A8FFF7AA
:105F9C002BF904A8FFF728F920460CB070BD069524
:105FAC00EAE700002DE9F04F87B01D46DDE910430C
:105FBC0080468B46924612990393002268200291E8
:105FCC000492FEF760F8061E06F10C0918D00122A7
:105FDC003746C6E901220299154A47F8202B039B44
:105FEC0000915A4651464846FFF7AEFF0FCD0FC7FA
:105FFC002B683B600FCC06F134050FC523682B6072
:10600C0004A94046CDE90496FFF71AFD05A8FFF751
:10601C00A8FCD8F800303BB9064A07490A2007B05B
:10602C00BDE8F04FFEF7D2BD07B0BDE8F08F00BF62
:10603C0048890B00C5480B0004880B008842F8B552
:10604C0004460D46164614D9904213D2A2F1080606
:10605C00751AA1F108072C44B74218D01CB131466F
:10606C002046FFF76AFC301DFFF77BFC083E083C1E
:10607C00F2E70CD0B5420AD01CB129462046FFF7F6
:10608C005CFC281DFFF76DFC08350834F2E7F8BD01
:10609C0070B50E1E054611DDF000FEF74BFE0446F2
:1060AC0058B1D5E9001201EBC202FFF7C7FF28680F
:1060BC00FEF748FE2C60AE60012070BD0024F6E7B0
:1060CC0073B5044645686846FFF737FCD4E90113FD
:1060DC00994210DA2368626803EBC50503EBC20230
:1060EC00294605F10800FFF7A9FF8DB96368013354
:1060FC006360012606E001312046FFF7C9FF064622
:10610C000028E7D101A8FFF72CFC304602B070BD87
:10611C0069462846FFF711FCE8E78842F8B50446C3
:10612C000D46164614D9904213D2A2F10806751AE0
:10613C00A1F108072C44B74218D01CB131462046B7
:10614C00FFF7EDFB301DFFF70CFC083E083CF2E7B7
:10615C000CD0B5420AD01CB129462046FFF7DFFB14
:10616C00281DFFF7FEFB08350834F2E7F8BD70B5C3
:10617C000E1E054611DDF000FEF7DCFD044658B19D
:10618C00D5E9001201EBC202FFF7C7FF2868FEF742
:10619C00D9FD2C60AE60012070BD0024F6E773B50C
:1061AC00044645686846FFF7BAFBD4E901139942E7
:1061BC0010DA2368626803EBC50503EBC2022946BB
:1061CC0005F10800FFF7A9FF8DB96368013363601F
:1061DC00012606E001312046FFF7C9FF06460028DC
:1061EC00E7D101A8FFF7BDFB304602B070BD694690
:1061FC002846FFF794FBE8E72DE9F04F1746A1B0CE
:10620C0080460AA80E46FFF72DF83C68237953B94F
:10621C0039464046FFF783FB0AA8FFF731F84046A2
:10622C0021B0BDE8F08F3368D3E9035305EBC3030A
:10623C00039304F1280A04F1140B039B9D4221D013
:10624C00D5F80090584609F11401FFF7BCF8B8B125
:10625C0009F128015046FFF7B6F888B12368D9F840
:10626C000020534033F47F430AD12022CDE915237B
:10627C005E4A009215AA5E493220FEF7AFFCC7E7D2
:10628C000835DAE75046FFF76FF860B95949012233
:10629C0015A815ADFFF740F80FCDD446ACE80F00AC
:1062AC002B68CCF800303368D3E9005305EBC30BF3
:1062BC005D45A94651466ED055F8080BFFF783F89B
:1062CC000028F5D004F1140A5046FFF74DF888B9B0
:1062DC00494B48491A88013292B21A8015A80123F9
:1062EC0015ADFFF738F80FCDD446ACE80F002B688E
:1062FC00CCF80030414B15932822002116A801F050
:10630C00E7FF514604A8FFF741F804AB18AA0DF1BA
:10631C00200C18685968154603C5083363452A468E
:10632C00F7D11868286023798DF85830D9F80030E7
:10633C009B8AADF87430E36B1793314B0022A11D8F
:10634C0015A8CDE91E34FEF719FB00287FF460AFC9
:10635C0001232370346839460C340DA8FFF7DFFA9B
:10636C0020460DA9FFF71BFF04460EA8FFF7F9FA0C
:10637C00002C7FF44DAF2023CDE90D34214B00933D
:10638C000DAA234677E739464046FFF7C8FA0CA812
:10639C00FFF7E7FA40E70BA8FFF732F9514615A8CB
:1063AC00FEF7F4FF0B9A0023143215A90120FEF717
:1063BC00BDFA0028E7D135680BA90DA8FFF7BDFA87
:1063CC0028460DA9FFF77CFE05460EA8FFF7C9FA73
:1063DC00002DD8D032685368126803F10053013B8A
:1063EC000CA802EBC309FFF7BCFA6BE7EC880B00B7
:1063FC001B880B00B2890B0094E6032003002C00D1
:10640C00A5570B0017890B00024800230360FEF709
:10641C00DDBA00BF98E60320F8B506460D468F1886
:10642C000024BD420CD0336815F8011B9B68304624
:10643C009847031E01DB1C44F3E7002C08BF1C46E5
:10644C002046F8BD13B50446084659B1019101F038
:10645C009EFF23680199DB680246204602B0BDE826
:10646C001040184702B010BD03689B68184738B538
:10647C000D210546FFF7F8FF0A2104462846FFF7D1
:10648C00F3FF204438BD30B58BB00023012A8DF8C2
:10649C00243098BF0A2209AC0D46B1FBF2F101FB86
:1064AC00125303F0FF03092B94BF30333733DBB2A5
:1064BC00AA4204F8013DEFD92146FFF7C3FF0BB008
:1064CC0030BD2DE9F04186B000AF05460E46381DB3
:1064DC00142114463B60FEF745FC13280ED8391DD9
:1064EC002846FFF7AFFF04461EB12846FFF7BFFF53
:1064FC00044420461837BD46BDE8F08100F108037E
:10650C0023F00703E846ADEB030D2246411C3B6824
:10651C006846FEF727FC69462846FFF793FF0446BA
:10652C00C546E1E780680368DB6818477047084692
:10653C0011B10B685B68184770477047704770471C
:10654C00704738B504460D4600682E2101F003FF54
:10655C002368C31A2B6023B1037803B1013023687D
:10656C002060184638BD10B50C210446FDF78FFD90
:10657C00204610BD10B504210446FDF788FD2046C9
:10658C0010BD10B504210446FDF781FD204610BD59
:10659C00FEF72CBA08B501F0E8FEB0FA80F040091D
:1065AC0008BD704710B50C4601F0B6F8844210D007
:1065BC0001F0CAFC844205D101F0C6FCBDE81040D4
:1065CC0001F029B92CB1236820465B68BDE8104066
:1065DC00184710BD0B6803604B68436013B15A68D1
:1065EC0001325A60704713B504460846019101F018
:1065FC00CEFE01990246204602B0BDE8104001F0E3
:10660C000FBC13B504460846019101F0C0FE236887
:10661C000199DB680246204602B0BDE810401847DD
:10662C0007B503688DF80710DB6801220DF107012F
:10663C00984703B05DF804FB0EB403B503AB00211F
:10664C0053F8042B006A0193FFF73BFF02B05DF88F
:10665C0004EB03B070470A6802604A68426000228B
:10666C00C0E9022210B502618C688460CC68C460F9
:10667C000C698A60CA6004610A6110BD2DE9F74F8C
:10668C00D0E900844FF0140A00930AFB04F4184B71
:10669C00A41017465C434546002C21DD66100AFB0E
:1066AC0006F005EB00093A46B9F804B028580191F8
:1066BC005F4528BF5A4601F072FE002801994FF041
:1066CC0001030BD15F4503D1009A13703446E3E705
:1066DC00FCD9A61B09F11405013EF7E7F9DBF5E738
:1066EC00A5EB08050248AD10684303B0BDE8F08F78
:1066FC00CDCCCCCC7FB50369057E019103B3F9B148
:10670C00002600F10C04039603A901A8FFF719FF5A
:10671C000146A8B10DF10B03039A8DF80B602046CE
:10672C00FFF7ACFF9DF80B3053B12368142404FB26
:10673C000034083434F9023C002BA8BFDDB2E3E787
:10674C00284604B070BD000010B5094C2378BFF387
:10675C005B8FDB0709D42046FDF7A8FC28B1204647
:10676C00FDF7A9FC034801F06DFD034810BD00BF07
:10677C00A4E6032047650B0098E5032010B5094CEF
:10678C002378BFF35B8FDB0709D42046FDF78EFC23
:10679C0028B12046FDF78FFC034801F053FD034858
:1067AC0010BD00BFA8E60320AF650B009CE50320DD
:1067BC0038B500250446C0E90055C0E9045585608C
:1067CC00856140F8245FFEF701F9FFF7BDFFE0613A
:1067DC00FFF7D4FF25732062204638BD10B50A4C54
:1067EC002378BFF35B8FDB070CD42046FDF75EFCF0
:1067FC0040B10648FFF7DCFF2046FDF75CFC04487F
:10680C0001F020FD014810BDA0E60320B0E60320F6
:10681C003D6D0B00024A034903480023FEF7F6B90D
:10682C00216B0B00AD6A0B002D6A0B0000231A467E
:10683C0019461846FEF7EAB937B58D68044668461E
:10684C00FFF7C8FE6A462946204601F009FA01A85E
:10685C00FFF787F8204603B030BD37B5CD68044646
:10686C006846FFF7B7FE6A462946204601F0D4F980
:10687C0001A8FFF776F8204603B030BD37B50D6997
:10688C0004466846FFF7A6FE6A462946204601F0F4
:10689C006CF901A8FFF765F8204603B030BD000085
:1068AC0070B58AB00D46014604A8FFF7C5FF144E1B
:1068BC0004A801F0EDF9E8B104A96846FFF7CDFF93
:1068CC0002983146FFF766FE044610B12C1E18BF25
:1068DC00012401A8FFF745F8002CE9D004A968466B
:1068EC00FFF7CCFF684601F076F9286001A8FFF7A6
:1068FC0038F8DDE705A8FFF734F80AB070BD00BF23
:10690C00D2890B0037B50C4620461349154601F0C9
:10691C002CFD50B900F000FF4FF4165100F0ECFEC6
:10692C0003B0BDE8304000F0F7BE0C49204601F042
:10693C001CFD78B94FF4165301A928460193FFF7B3
:10694C00AFFF01F001FB019900F062FF01F0FCFACE
:10695C0003B030BD0020FBE7D7890B00DE890B00AC
:10696C0070B5D0E900531426044606FB0356AE421C
:10697C0005D005F10800FFF7F3FF1435F7E72068A1
:10698C00FEF7E0F9204670BD10B504460C30FFF759
:10699C00E7FF2046FEF745FF204610BD10B5044B1F
:1069AC00044640F8043BFFF7EFFF204610BD00BF44
:1069BC00A0870B0010B50446FFF7F0FF20462421FA
:1069CC00FDF765FB204610BD10B5034B0360044674
:1069DC00FFF7E4FF204610BD7C8A0B0010B504467F
:1069EC00FFF7F2FF20462421FDF751FB204610BD96
:1069FC000022C0E9002210B582600C6804604C686B
:106A0C0044608C680A604A6084608A6010BD10B56E
:106A1C00036804461868FDF7F1FF204610BD00001E
:106A2C002DE9F04F87B0804603931C4B5B68C3F392
:106A3C000803894616466BB9FFF7D0FE044600F1F1
:106A4C002403406A0593FFF7A3FD237B2BB105A814
:106A5C00FFF7DDFF07B0BDE8F08F01232373D4E906
:106A6C0000535FFA89F905EB830AAA4512D055F851
:106A7C00047B3146381DFFF73DFE8145F5D33B685D
:106A8C00039A0092D3F808B04A463346414638463A
:106A9C00D847EAE700232373D9E700BF00ED00E0F5
:106AAC002DE9F74F9B461A4B5B68C3F308038046EE
:106ABC00894616466BB9FFF791FE044600F1240394
:106ACC00406A0193FFF764FD237B2BB101A8FFF70C
:106ADC009EFF03B0BDE8F08F01232373D4E900536C
:106AEC00F6B205EB830A55450ED055F8047B594692
:106AFC00381DFFF7FFFD8642F5D33B684A46DB683D
:106B0C00414638469847EEE700232373DEE700BF83
:106B1C0000ED00E02DE9F341164B5B68C3F308036D
:106B2C0005460F461BBBFFF759FE00F12403044634
:106B3C00406A0193FFF72CFDD4E90063462406EB71
:106B4C008308B04509D101A8FFF761FFA542B4BF86
:106B5C000020012002B0BDE8F08156F8040B394644
:106B6C000430FFF7C7FD8442A8BF0446E9E70020C4
:106B7C00F0E700BF00ED00E0F8B5D0E901539D420D
:106B8C0004460E460DDB6F1C002F006804DDB900B7
:106B9C00FEF7E0F818B9F8BDFEF7D4F80020206035
:106BAC00A7602768626807EB85019200A2EB85025B
:106BBC00081D01F073FB47F82560636801336360BF
:106BCC000120E8E737B500F124030446406A01933D
:106BDC000D46FFF7DDFCD4E9003203EB8202934251
:106BEC0019460BD00968A94203F10403F7D101A897
:106BFC00FFF70DFF0025284603B030BD294620467F
:106C0C00FFF7BAFF05460028F1D06368012B01D1CC
:106C1C00FFF700FE01A8FFF7FAFEECE770B504469B
:106C2C00D0E900020B4600EB820282420FD00146F3
:106C3C001D6851F8046BAE4207D1521A01F02EFBBD
:106C4C006368013B6360012070BD0846EDE70020DE
:106C5C00FAE71FB500F124030446406A019103933F
:106C6C00FFF796FC01A92046FFF7D8FF18B163681F
:106C7C000BB9FFF7DBFD03A8FFF7C9FE04B010BD8D
:106C8C0070B5D0E904561823044603FB0656AE42F1
:106C9C0015D005F110012046FFF7C0FF63680BB952
:106CAC00FFF7C4FDE06929690368DB6898476969E7
:106CBC0019B1206A0368DB6898471835E7E7D4E90F
:106CCC000453182606FB0356AE4204D02846FEF7A2
:106CDC00CBF81835F8E70023636170BD73B5044633
:106CEC00FFF7A4FD04F12403606A0193FFF750FC45
:106CFC002046FFF7C5FF01A8FFF789FE606A08B1BF
:106D0C00FDF76CFED4E90453182606FB0356AE427D
:106D1C0004D02846FEF7A8F81835F8E72069FEF7E6
:106D2C0011F82068FEF70EF8204602B070BD000086
:106D3C000148FFF7D3BF00BFB0E603208842F8B587
:106D4C0004460D46164615D9904214D2A2F11406EB
:106D5C00751AA1F114072C44B7421AD01CB1314654
:106D6C002046FFF778FC06F10800FFF7F9FD143E0A
:106D7C00143CF1E70DD0B5420BD01CB1294620468E
:106D8C00FFF769FC05F10800FFF7EAFD1435143430
:106D9C00F1E7F8BD8842F8B504460D46164614D9FD
:106DAC00904213D2A2F11006751AA1F110072C44CF
:106DBC00B74218D01CB131462046FEF7DDF83046FC
:106DCC00FEF752F8103E103CF2E70CD0B5420AD058
:106DDC001CB129462046FEF7CFF82846FEF744F8AA
:106DEC0010351034F2E7F8BD70B50E1E054611DDF6
:106DFC003001FDF79FFF044658B1D5E9001201EBB5
:106E0C000212FFF7C7FF2868FDF79CFF2C60AE60ED
:106E1C00012070BD0024F6E72DE9F04F904695B0A7
:106E2C0000230391D8F804100A9346229942C0E932
:106E3C000033C0E90233C0E90433CDE9083304461A
:106E4C00027623DCD8E90057142303FB0757AF4223
:106E5C003BD029460BA8FEF78FF80BA90FA8099E6B
:106E6C00FEF78AF8DDE9091399421BDA089B099AA7
:106E7C0003EB061603EB0212314606F11000FFF786
:106E8C0089FFEEB9099B0133099311E008A8FFF7BC
:106E9C00ABFF0028D6D108A8FEF7C3FC204615B0DE
:106EAC00BDE8F08F013108A8FFF79EFF0028DDD167
:106EBC000FA8FDF7D9FF0BA8FDF7D6FF1435C6E7D1
:106ECC000FA93046FEF758F8DCE70026CDE90B6633
:106EDC000D964FF01409DDE908239E427CDA33014C
:106EEC00D35806930BB90136F5E70023079309FB3A
:106EFC0006F302930BAD07A906A8FFF722FB824607
:106F0C000028F0D04FF000038DF817300146079A97
:106F1C000DF117032846FFF7B1FB9DF81770019090
:106F2C00002F4AD1BDF81C30ADF84030CDE91177B7
:106F3C004FF6FF73CDF83CA0ADF842301397D5E96E
:106F4C000132934217DB03F1010ABAF1000F30DD75
:106F5C0009FB0AF0FDF7EEFE834660B3D5E900129B
:106F6C0009FB0212FFF7EAFE2868FDF7EBFEC5F8F5
:106F7C0000B0C5F808A02B68019A09FB023A6A68B0
:106F8C00514609FB02320AF11400FFF7D7FEBAF1A1
:106F9C00000F03D00FA95046FFF75DFB6B68013360
:106FAC006B6011A8FFF7DCFC3FB10BA8FFF7D8FC16
:106FBC0071E7BB46D8E70127F3E7019B2D6809FB76
:106FCC000355069B1B782BB9D8F80030029A134452
:106FDC001B7CEB8008358EE7216822606268636059
:106FEC00A36809920A9A0A93E368A2600B9A0B931E
:106FFC002369E2600C9A0C93636922610D9A0D93DC
:10700C00039B089162612376CFE70000F0B504463C
:10701C0087B00D462646194668461746FDF744FBD1
:10702C000B4B46F8043B694603A8FDF73DFB03AA4E
:10703C0039463046FFF7F0FE03A8FDF7D1FA684653
:10704C00FDF7CEFA034B23602046256207B0F0BD56
:10705C00A0870B00648A0B00F0B50F4685B01D4964
:10706C000A9C384616461D4601F07FF9C0B9A4B1FA
:10707C00294601A8FFF7BCFC1749242000F0C8FFE3
:10708C00054630B101AB32462146FFF7BFFF134B2B
:10709C002B6001A8FDF7A4FA2C46204605B0F0BDE4
:1070AC000F49384601F061F990B9002CF5D029460A
:1070BC0001A8FFF79DFC0849242000F0A9FF054614
:1070CC000028E6D001AB32462146FFF79FFFE0E7F0
:1070DC000024E2E7E6890B00F58B0B007C8A0B00A1
:1070EC00EA890B00014B024A1A607047ACE6032098
:1070FC00FB890B002DE9F047089DD0F82090044641
:10710C000E461746984600F007FB81454CD02B796C
:10711C00190704D56A6954492046FFF78DFAB8F16E
:10712C00000F0DD05B212046FFF77AFA414620462E
:10713C00FFF767FA23684D49DB680222204698471F
:10714C002B79DA0723D5D5F808802F21404601F09A
:10715C0059F908B100F1010841462046FFF751FAF0
:10716C002B799B0708D53A212046FFF759FAEA6894
:10717C003F492046FFF760FA2A79236812F0040F82
:10718C00DB6814BF3B493C490222204698472B79C7
:10719C0058071DD529690B461A4613F8010B60B127
:1071AC00202808D11946F7E7344800F0F6FB0028F0
:1071BC00ADD0BDE8F0872828EED12368521ADB68E1
:1071CC002046984723682E49DB68042220469847BE
:1071DC0000213846FDF712FD01462046FFF711FA53
:1071EC0023682549DB680222204698471EB13146A8
:1071FC002046FFF706FA2B7913F0300F2CD02368BA
:10720C002049DB680222204698472B79D9060AD5FB
:10721C0023681D49DB68072220469847AA691B4949
:10722C002046FFF709FA2B799A0611D5DB0605D50E
:10723C0023681049DB6802222046984723681449CA
:10724C00DB6820460A229847E9692046FFF7D9F9FE
:10725C005D212046FFF7E4F923680E49DB682046E0
:10726C000222BDE8F0471847FF890B00068A0B0085
:10727C00098A0B0045860B000E8A0B0014E70320CD
:10728C000C8A0B00118A0B00148A0B001C8A0B0051
:10729C001F8A0B002A8A0B002DE9F04385B0D0F829
:1072AC0020900C9C05460F4690461E4600F034FA82
:1072BC00814505D1494800F070FB002840F08A80D8
:1072CC002B6A474A01924FF0000901A803938DF8ED
:1072DC00089000F006FD49464046FDF78FFC4149F9
:1072EC008046012201A800F08BFD4146FFF77BF997
:1072FC003FB13D49012201A800F082FD3946FFF75C
:10730C0072F93EB13949012201A800F079FD3146EC
:10731C00FFF769F92379DF070ED5A6682F213046D0
:10732C0001F070F800B1461C3149012201A800F0AF
:10733C0067FD3146FFF757F923799E0707D52D498D
:10734C00022201A800F05CFDE16800F0D7FC237973
:10735C00580714D5266933461F4613F8012B2AB15A
:10736C00202A01D11E46F7E7282AF5D1224902220C
:10737C0001A800F045FDBA1B314600F051FD237900
:10738C00190707D51D49012201A800F039FD6169D3
:10739C0000F0C6FC2379DA0608D5042218490DEB57
:1073AC00020000F02DFDA16900F0A8FC23799B06DA
:1073BC0007D51449062201A800F022FDE169FFF768
:1073CC0012F901A800F077FC286A0F490368022221
:1073DC00DB68984705B0BDE8F08300BF14E70320D5
:1073EC004C8A0B00DC890B002D8A0B007B8D0B006B
:1073FC0033870B002F8A0B00328A0B00358A0B0067
:10740C00378A0B003C8A0B002A8A0B00024B1A6845
:10741C00024B1A60704700BFA0E50320D8E603209A
:10742C00014B00229A607047DCE60320014B186088
:10743C00704700BFA4E5032008B50B4B43B100F027
:10744C006BF903681B699847002801DDAFF30080D6
:10745C00064B43B100F078FD03681B699847002880
:10746C0001DDAFF3008008BD00000000000000004B
:10747C0008B5FFF7E1FFFDF727FA014B186008BDCF
:10748C0040E703200548064A064908B5121A00F0E1
:10749C00F7FE054B054A1A6008BD00BF00F4032037
:1074AC0004F40320D48E0B0000F403201E1C279A36
:1074BC0007B5002300931A466FF07701FDF7C8FB60
:1074CC0003B05DF804FB000007B543880A2B08D015
:1074DC00502B0BD1094B1B684BB103B05DF804EB7F
:1074EC001847FFF7E5FF03B05DF804FB002300939A
:1074FC001A466FF07701FDF7ABFBF4E7F0E60320DB
:10750C0010B512480021FDF74DFC114B1A68114BB8
:10751C009A42114B0CBF012200221A7001D0FFF7C6
:10752C00B1FFFDF7C1F9044600F0DAFE0B4B13B1C5
:10753C002046AFF3008000210848FDF7F3FBBDE8BF
:10754C00104007480021FDF779BB00BF39740B00D0
:10755C0000F403201E1C279AECE603200000000018
:10756C00D5740B00704710B518210446FCF78FFD3D
:10757C00204610BDF0B5037D062B8DB00E4600F1F4
:10758C0004074FF0000412D000F1080515F8011D96
:10759C000A223046FEF777FFAF42044419D0002C84
:1075AC00F4D02E213046FEF75FFF0444EEE72F2384
:1075BC006A4639460A208DF80040FDF727FA6846DE
:1075CC0000F0E5FE33680246DB68694630469847B2
:1075DC00044620460DB0F0BD10B5054B04461122F3
:1075EC0040F8043B002100F073FE204610BD00BFA4
:1075FC00E08A0B000346074A10B543F8042B01F14F
:10760C00100251F8044B43F8044B9142F9D10A781B
:10761C001A7010BDE08A0B0010B59DF8084044EAC2
:10762C00032343EA024242EA0161042341600375E9
:10763C0010BD000007B5064B0360CB7800938B7828
:10764C004A780978FFF7E8FF03B05DF804FB00BF48
:10765C00E08A0B00417470477047704708B50021F1
:10766C00007CFDF79BFA40EAE07008BD08B50121EB
:10767C00007CFDF793FA40EAE07008BD08B5007C89
:10768C00FDF784FA20EAE07008BD08B5007CFDF730
:10769C0075FA20EAE07008BD13B50446007C019130
:1076AC00FDF774FA0028019901DC607C20B1207C84
:1076BC00FDF77CFA20EAE07002B010BD007CFDF70B
:1076CC007DBA10B514210446FCF7E1FC204610BD30
:1076DC0010B54FF47A73044608460021C4E901132F
:1076EC00044B23600123207463741146FDF72EFABA
:1076FC00204610BDF48A0B00007C0022FDF72EBA48
:10770C00007CFDF733BA10B514220446002100F0BA
:10771C00DFFD204610BD000010B50F4C88B003A84B
:10772C00FFF7F1FF2178BFF35B8F11F001010FD14F
:10773C0020460191FCF7BAFC019948B103AA07480D
:10774C00FFF7C6FF2046FCF7B6FC054800F07AFDB3
:10775C00024808B010BD00BFF4E60320F8E6032091
:10776C0065760B0070474174704708B5007CFDF7D7
:10777C008DF920EAE07008BD08B5007CFDF75EF9D4
:10778C0020EAE07008BD08B5007CFDF767F940EA17
:10779C00E07008BD08B5007CFDF758F940EAE070D0
:1077AC0008BD007CFDF762B937B5457C04462DB1A8
:1077BC00207C03B0BDE83040FDF738B9007C019166
:1077CC00FDF764F900280199F2DC284603B030BDBE
:1077DC0010B514210446FCF75AFC204610BD0000DD
:1077EC0010B54FF47A730446084611460022C4E9DA
:1077FC000123044B2360012320746374FDF756F9B5
:10780C00204610BD248B0B00007C0023FDF746B9ED
:10781C000022FFF7F9BF007CFDF700B97047F8B5FF
:10782C00064615460C468F18BC4206D0336814F831
:10783C00011B9B6830469847F6E72846F8BD007C4C
:10784C000022FDF73BB9007C0021FDF73FB9007C1D
:10785C000021FDF743B9007C0021FDF747B9007CFE
:10786C000021FDF74BB910B514210446FCF70FFCB1
:10787C00204610BD38B5044615464FF47A730022E5
:10788C00C4E90123094B2174084623602946FDF7FE
:10789C0045F9BF3008D16B69DB0705D56868FDF782
:1078AC0051FAE868FDF74EFA204638BD548B0B00B0
:1078BC00002240681146FDF7EDB9002240681146E0
:1078CC00FDF708BA002240681146FDF713BA40686C
:1078DC000022FDF707BA4068002281F00101FDF794
:1078EC00F1B9002340681A461946FDF7E3B90023A5
:1078FC0040681A461946FDF7D5B900224068114672
:10790C00FDF7B8B9406800220221FDF7BBB900238E
:10791C0040681A46FDF7A6B9024B04225A60024A87
:10792C001A6070470CE703207C8B0B000023406827
:10793C001A46FDF797B9406800220221FDF7A2B95B
:10794C00002240681146FDF795B9002240681146A7
:10795C00FDF7A0B9002340681A461946FDF7A2B9F5
:10796C00002340681A461946FDF7A4B94068002167
:10797C00FDF7C8B940680021FDF7CCB9406800227A
:10798C0081F00101FDF79EB940680022FDF7AAB90C
:10799C00002240681146FDF7ADB90022406811463F
:1079AC00FDF798B92DE9F04395B014460D460746FE
:1079BC00FFF712FE00211C220DA8009100F088FC9C
:1079CC0040230C9320466B460CAA0021FCF74CFF7D
:1079DC00044600284BD1024601216868FDF75AF98C
:1079EC000221804622466868FDF754F9009E8146C4
:1079FC002146002E3BD0002939D17368022B03D0CD
:107A0C000A2B11D0F669F4E7B8F1000FFAD07169BE
:107A1C0006A8043107ADFFF70DFE0FCD3C1D0FC4BA
:107A2C002B6823704146EDE7B9F1000FEAD0746979
:107A3C00102201A800F04CFC06238DF8143001AD87
:107A4C0004F108031834186859682A4603C208332D
:107A5C00A3421546F7D101A906A807ADFFF7CAFD49
:107A6C000FCD3C1D0FC42B6823704946CAE7009804
:107A7C00FCF7F2FE384615B0BDE8F083024B034A22
:107A8C001A6000225A60704714E70320B88B0B0071
:107A9C0000F11003012213F8101C0129184608D11B
:107AAC0053F8041C02EB4102013A03F11003F2D12A
:107ABC007047022904BF53F8041C5218F4E70EB4A3
:107ACC00F0B588B000AF07F13405102155F8042B40
:107ADC007A6004462B467818FD60FDF743F90F28B1
:107AEC007A681AD900F1080323F007036E46ADEB50
:107AFC00030D411C2B466846FD60FDF733F9021E51
:107B0C0004DD236869469B6820469847B5462037B4
:107B1C00BD46BDE8F04003B070470028F7D023689D
:107B2C0002469B6807F1100120469847EFE738B5ED
:107B3C000B6803604D6843689D42044608D015B13C
:107B4C006B6801336B60606808B1FDF761FB6560C1
:107B5C0038BD07B503688DF807109B6801220DF13D
:107B6C000701984703B05DF804FB0B461146002251
:107B7C0010B5C0E90022044683600BB9204610BD45
:107B8C00FFF7D5FFFAE78368EBB11A78032A1AD806
:107B9C00DFE802F00417021B0520704702685B68DF
:107BAC005268D05C2D2812D0A0F13003092B0ED9CD
:107BBC0074280ED066280CD0A0F16E0358425841A0
:107BCC007047062070470020704704207047032040
:107BDC0070470220704710B50446FFF7D4FF022807
:107BEC000ED0C31EDBB2012B14D82268A3685068D8
:107BFC005B68BDE810400A220021184400F098BCD4
:107C0C002268A36852685B68D05CA0F17403584288
:107C1C00584110BD0020FCE738B50023C0E9003303
:107C2C0004460E48C4E90203A9B10B78032B06D015
:107C3C008BB9136858684B68C35C6E2B07D01368FC
:107C4C004D6858688B6828445B1BA060E360114644
:107C5C002046FFF76CFF204638BD00BF2C8A0B0076
:107C6C0038B500250B46C0E90055C0E90255C0E9FE
:107C7C000455044611464BB11A78012A06D103F17A
:107C8C001002DB6882604361FFF751FF204638BD6C
:107C9C0010B54369044663B18068E060013B103065
:107CAC00A0602061636113B1FFF7F2FEA0600120B8
:107CBC0000E0184610BD10B57D210446FFF749FFC2
:107CCC0001232371204610BD08B50379012B02D086
:107CDC00022B04D008BD2C21FFF73BFFFAE73A2119
:107CEC00FAE710B50446FFF7EFFF20467B21FFF7BC
:107CFC0030FF00232371204610BD000013B504464D
:107D0C000191FFF7E1FF2368019ADB6803492046E4
:107D1C00984701232046237102B010BD098A0B003D
:107D2C0013B504460191FFF7CFFF2368019ADB6876
:107D3C0003492046984701232046237102B010BD09
:107D4C00EC8B0B002DE9F0470D46222190460446A2
:107D5C00FFF7FFFEDFF8A490A8442F464745BA462C
:107D6C003DD017F8016B222E06D05C2E04D0304685
:107D7C0000F06EFA0028F1D12368AAEB05029B688B
:107D8C002946204698475C212046FFF7E2FE0D2E3F
:107D9C000AD8072E1CD9A6F10803052B18D8DFE842
:107DAC0003F00D0F11171315222E01D05C2E0FD1DD
:107DBC0031462046FFF7CDFE3D46CFE76221F8E77E
:107DCC007421F6E76E21F4E76621F2E77221F0E701
:107DDC0023683246DB68494620469847ECE7BD42AB
:107DEC0005D023687A1B9B68294620469847222198
:107DFC002046FFF7AEFEBDE8F08700BFEF8B0B000F
:107E0C0013B50446CDE90021FFF75EFF2046DDE9FE
:107E1C000021FFF797FF02232046237102B010BD0B
:107E2C0013B50446CDE90021FFF74EFF2046DDE9EE
:107E3C000021FFF787FF01232046237102B010BDFC
:107E4C00232813B502D9002002B010BDA0F10B03FA
:107E5C00022B1AD8174C2178BFF35B8F11F001015C
:107E6C000BD120460191FCF721F9019928B1124858
:107E7C00FCF7DEFF2046FCF71EF90F4B1878FCF7D9
:107E8C005DFE0028DFD10120DEE7012809D800F0D3
:107E9C009BF80021007CFCF739FE80F00100C0B299
:107EAC00D2E709380128EED800F04EF8007CFCF738
:107EBC00E5FDF2E71CE7032020E70320232838B573
:107ECC0004460D460AD8FF2908D0FFF7B9FF28B1A0
:107EDC0029462046BDE83840FCF7CEBC38BD38B545
:107EEC0004460D46FCF7D0FCFF2810D0062804D819
:107EFC004D2323FA00F0C30709D42046FFF7A0FF57
:107F0C0028B129462046BDE83840FCF7C5BC38BD31
:107F1C007047000038B5044614252A46002100F0AD
:107F2C00D7F925804025074925812846258200F070
:107F3C0071F804496060284600F06CF8E060204657
:107F4C0038BD00BFF58B0B0030B50E4D2978BFF353
:107F5C005B8F11F0010487B011D12846FCF7A6F80D
:107F6C0068B101A8FFF7D6FF01AA21460648FFF722
:107F7C0037FC2846FCF79FF8044800F063F90248E8
:107F8C0007B030BD28E703202CE703201D7F0B0032
:107F9C007047000038B50A4B036001230446436167
:107FAC000849202000F036F8202560600549A560BE
:107FBC00284600F02FF8C4E90305204638BD00BF61
:107FCC0018000100F58B0B0030B50E4D2978BFF36E
:107FDC005B8F11F0010487B011D12846FCF766F8CD
:107FEC0068B16846FFF7D6FF6A4621460648FFF798
:107FFC0041FC2846FCF75FF8044800F023F90248DE
:10800C0007B030BD44E7032048E703209D7F0B00F9
:10801C00FCF739B8FCF739B808B5FCF7ABFE000033
:10802C00014900F0F9B800BF108C0B007FB500249B
:10803C001023CDE90234036815469E6912686B461D
:10804C00CDE90044B0479DF8043003F00603062B3D
:10805C0003BF009B2B600120204604B070BD00982C
:10806C00904214BF012006207047000010B5034B4E
:10807C000360044600F0CDF8204610BD508C0B0078
:10808C0010B50446FFF7F2FF20460821FBF7FFFF6F
:10809C00204610BD2DE9F0411F46DDE90834DDF81E
:1080AC00188098450646154607D1079900F0B4F894
:1080BC0018B165710020BDE8F0813946304600F0FA
:1080CC00ABF80028F6D00123C4F800802571A37109
:1080DC00F0E738B515461C4600F09EF820B1082391
:1080EC00E36006232560237138BD73B505460C4645
:1080FC0001921E4600F090F850B9032E08D8236860
:10810C00019A5B692946204602B0BDE870401847C9
:10811C0002B070BD10B5034B03600446FFF7A6FF19
:10812C00204610BDB08C0B0010B50446FFF7F2FFD3
:10813C0020460C21FBF7ABFF204610BDF7B5089F7E
:10814C00974205460E4614460AD0A868026808975E
:10815C00156A31462246AC4603B0BDE8F040604794
:10816C001946019300F058F8019B0028EDD0062029
:10817C0003B0F0BD2DE9F14F0D461946DDE90A4B70
:10818C00DDE90CA681461746984600F045F890B1FB
:10819C00002D3460377109DB61198A450CBF06214B
:1081AC000121B171002001B0BDE8F08F0235F9D189
:1081BC000123B371F6E7544506D15946484600F001
:1081CC002BF808B17771EDE7D9F808000368CDE911
:1081DC000CA6CDE90A4BDC693A4643462946A4462F
:1081EC0001B0BDE8F04F60472DE9F04107460C4661
:1081FC0015461E46FFF76DFF48B9B86803689F69BE
:10820C002A4633462146BC46BDE8F0416047BDE8EE
:10821C00F081704700207047814208B50ED040684D
:10822C0003782A2B0CD049680B782A2B08BF013114
:10823C0000F09BF8B0FA80F0400908BD0120FCE783
:10824C000020FAE7002301461A46184600F07AB9D6
:10825C00024B1844407800F0970070477D8D0B005E
:10826C0010B501390244904201D1002005E0037899
:10827C0011F8014FA34201D0181B10BD0130F2E7D9
:10828C000A44914200F1FF3300D1704710B511F848
:10829C00014B03F8014F9142F9D110BD884210B542
:1082AC0001EB020402D98442234607D8431EA142A3
:1082BC0008D011F8012B03F8012FF8E7024401460E
:1082CC008A4200D110BD13F8014D02F8014DF7E7B9
:1082DC0002440346934200D1704703F8011BF9E7AF
:1082EC0038B5104B1D68AB6B0446B3B91820FCF7BE
:1082FC0021FD0246A86320B90B4B0C484221FCF728
:10830C0049FD0B490B4BC0E900130B4B83600B234E
:10831C00838100210120C2E90401AB6B00221C61A6
:10832C005A6138BDA4E50320E98C0B00008D0B00CD
:10833C000E33CDAB34126DE6ECDE0500C9B203464C
:10834C0010F8012B1AB18A42F9D11846704700294E
:10835C0018BF0023F9E710B50446FFF7EFFF18B973
:10836C00204600F014F8204410BD10F8012B11F831
:10837C00013B012A28BF9A42F7D0D01A7047034616
:10838C0011F8012B03F8012B002AF9D17047034691
:10839C0013F8012B002AFBD1181A0138704710B5BD
:1083AC007AB103460139841813F8010B11F8012F27
:1083BC00904201D1A34201D1801A10BD0028F3D103
:1083CC00FAE71046F9E710B50139034632B111F856
:1083DC00014F03F8014B013A002CF7D11A4400214C
:1083EC00934200D110BD03F8011BF9E710B502460A
:1083FC0001448A42134603D01C780132002CF8D178
:10840C00181A10BD38B503460C4669B9BDE838409A
:10841C00FFF794BF431C054621461846FFF78EFF15
:10842C000028F7D1284638BD0025F5E7012B2DE9AA
:10843C00F04701D0242B06D9FCF7A4FC16230360CB
:10844C000020BDE8F087DFF8E4C00D462E4615F895
:10845C00014B14F80C7017F00807F7D12D2C32D102
:10846C002C780127B51C002B5BD0102B09D1302C9C
:10847C0007D12C7804F0DF04582C4DD16C781023E4
:10848C00023507F1004808F1FF384FF0000CB8FB3B
:10849C00F3F9664603FB198AA4F1300EBEF1090FFD
:1084AC0016D87446A34224DDBCF1000F1EDBB14587
:1084BC001CD301D1A24519DB06FB03464FF0010C7E
:1084CC0015F8014BE8E72B2C04BF2C78B51CCAE738
:1084DC00A4F1410EBEF1190F01D8373CE2E7A4F12B
:1084EC00610EBEF1190F04D8573CDBE74FF0FF3C8F
:1084FC00E6E7BCF1000F05DA22230360464642B9D9
:10850C0030469EE707B17642002AF9D0BCF1000F45
:10851C0000D0691E1160F3E73024002BB1D1082381
:10852C00AFE7302CA5D00A23ABE700BF7E8D0B0044
:10853C0013460A46014602480068FFF777BF00BFA2
:10854C00A4E503202DE9F843DFF8B8800646D8F8F7
:10855C0000001F460D46914600F056F8254B1C684E
:10856C0034B9254C1C60254B13B11B68C4F88830FA
:10857C0063681F2B07DDD8F8000000F047F84FF0B8
:10858C00FF30BDE8F8834EB3D4F8880088B91C4B93
:10859C0023B9D8F8000000F038F8F0E74FF48470F5
:1085AC00FCF7C8FB0028F4D00023C0E94033C4F822
:1085BC008800636840F8239001229A4000EB830105
:1085CC00D0F800311343C0F80031022EC1F880708E
:1085DC0002BFD0F804311343C0F804316368D8F8F3
:1085EC0000005A1C0233626044F8235000F00EF86D
:1085FC000020C6E7E8E703205CE70320000000004A
:10860C00414D0B0008E6032070477047704700008F
:10861C001D400B0059400B0081400B0085400B00A6
:10862C000000000043616C6C206F6E2070757265E9
:10863C00207669727475616C002C20005570646131
:10864C007465642053746174757320616E64204387
:10865C006F6C6F72203A20257300524544004752CC
:10866C0045454E00424C5545004C4544204953204D
:10867C004F4E004C4544204953204F46460052650E
:10868C0063656976656420636F6C6F723A2025733D
:10869C00006F6E446174615265636569766564212F
:1086AC00210052656365697665642064617461209C
:1086BC0066726F6D3A20253032583A253032583A6E
:1086CC00253032583A253032583A253032583A252E
:1086DC003032583A0036453430303030312D423556
:1086EC0041332D463339332D453041392D45353005
:1086FC0045323444434341394500364534303030FB
:10870C0030332D423541332D463339332D453041ED
:10871C00392D453530453234444343413945007495
:10872C0075726E4F6E4F66660036453430303030A1
:10873C00322D423541332D463339332D45304139B5
:10874C002D4535304532344443434139450073653A
:10875C006C656374436F6C6F720036453430303027
:10876C0030342D423541332D463339332D4530418C
:10877C00392D453530453234444343413945006E3B
:10878C006F7469667953746174757300000000002E
:10879C00000000000000000000000000A1400B00E1
:1087AC00C9400B000000000000000000D5400B0089
:1087BC0009410B0001710B00CB400B0000000000C5
:1087CC00000000001F4E0B00154E0B000B4E0B0053
:1087DC00014E0B00F54D0B00E94D0B0079790B00A8
:1087EC0081790B00DD4D0B00D54D0B00CB4D0B00F3
:1087FC00C14D0B00B1790B00417373657274696FD5
:10880C006E4661696C7572652066616C7365007784
:10881C006972696E672E626C6500537461727420A4
:10882C00646973636F766572696E672073657276BF
:10883C00696365732E00417373657274696F6E465C
:10884C0061696C7572652068616C5F626C655F73E1
:10885C007461636B5F696E6974286E756C6C70748F
:10886C007229203D3D2053595354454D5F4552527A
:10887C004F525F4E4F4E45005065657220646576D1
:10888C00696365206973206D697373696E67210074
:10889C004661696C656420746F20617070656E64EC
:1088AC0020706565722043656E7472616C2064651E
:1088BC00766963652E00436F6E6E65637465642024
:1088CC0062792043656E7472616C206465766963AD
:1088DC00652E00446973636F6E6E65637465640026
:1088EC004475706C6963617465642063686172615E
:1088FC006374657269737469632063616E6E6F74FF
:10890C002062652061646465642E004661696C6553
:10891C006420746F20617070656E64206C6F63618D
:10892C006C206368617261637465726973746963E6
:10893C002E0000000000000000000000BD500B00E5
:10894C0021510B0007520B004B510B00C1500B0077
:10895C000000000000000000B9500B002F510B006C
:10896C00BB500B0051510B00E1500B0000000000FC
:10897C0000000000B7500B003D510B00D5590B0007
:10898C0057510B0001510B000000000000000000CB
:10899C00000000000000FB349B5F80000080001092
:1089AC000000000000007BE327747BF815ACDD4968
:1089BC00A913000072F5FB349B5F8000008000104F
:1089CC00000000000000626175640053657269610B
:1089DC006C0053657269616C31004A534F4E53748D
:1089EC007265616D4C6F6748616E646C6572006195
:1089FC00707000253031307520005D20002564003A
:108A0C0028293A2000205B00636F6465203D20001C
:108A1C0025690064657461696C73203D20000D0A42
:108A2C00006D006C6E00666E007400636F64650010
:108A3C0064657461696C00000000000000000000B7
:108A4C004D650B0073650B0031650B00CB7A0B0089
:108A5C000000000000000000A9690B00C1690B00B8
:108A6C0001710B00CB400B00000000000000000067
:108A7C00D5690B00E9690B00A5720B0039650B0079
:108A8C0000000000000000004B650B0081650B002E
:108A9C0065700B003B650B0000000000000000003F
:108AAC0049650B008F650B0011690B00B1650B005C
:108ABC0025592D256D2D25645425483A254D3A25EB
:108ACC0053257A0061736374696D650000000000C2
:108ADC000000000081750B0071750B0073750B00A5
:108AEC00000000000000000067760B00CF760B0042
:108AFC00A5760B0025640B0097760B0069760B00AE
:108B0C0079760B00C9760B0089760B0061760B0029
:108B1C00000000000000000071770B00DD770B00F7
:108B2C00B5770B0025640B0085770B00A1770B0044
:108B3C0093770B00AF770B0073770B0077770B00F5
:108B4C00000000000000000029780B0073780B0077
:108B5C004B780B002B780B0053780B005B780B00D9
:108B6C0063780B006B780B00000000000000000025
:108B7C001B790B0011790B0007790B00BD780B00EA
:108B8C00FB780B00EF780B0079790B0081790B00E7
:108B9C00E3780B00DB780B00D1780B00C7780B0067
:108BAC00B1790B00000000000000000039790B00C7
:108BBC0043790B004D790B0057790B0061790B0051
:108BCC006D790B0079790B0081790B0089790B0099
:108BDC0095790B009D790B00A7790B00B1790B00EF
:108BEC0025750075253034780000537431395F5386
:108BFC00705F6D616B655F7368617265645F7461F2
:108C0C0067000000508C0B00F68B0B00B08C0B0037
:108C1C00248C0B00D48C0B004E31305F5F63787862
:108C2C00616269763131375F5F636C6173735F7456
:108C3C007970655F696E666F45000000000000008A
:108C4C00188C0B0079800B008D800B0021820B009F
:108C5C0021820B00F7800B0039800B00DF800B00AA
:108C6C00A1800B006B800B00B08C0B00808C0B0078
:108C7C00188C0B004E31305F5F63787861626976D7
:108C8C003132305F5F73695F636C6173735F7479EA
:108C9C0070655F696E666F450000000000000000A3
:108CAC00748C0B0021810B0035810B0021820B0091
:108CBC0021820B00F7800B0039800B00F5810B0033
:108CCC0081810B0049810B00508C0B00DC8C0B005C
:108CDC00537439747970655F696E666F00524545DF
:108CEC004E54206D616C6C6F6320737563636565A6
:108CFC00646564002F6D6E742F776F726B73706187
:108D0C0063652F776F726B73706163652F47434395
:108D1C002D31302D706970656C696E652F6A656ECA
:108D2C006B696E732D4743432D31302D706970651F
:108D3C006C696E652D34385F3230323031313234FB
:108D4C005F313630363138303634312F7372632F11
:108D5C006E65776C69622F6E65776C69622F6C69D2
:108D6C0062632F7374646C69622F72616E642E631C
:108D7C0000002020202020202020202828282828FF
:108D8C0020202020202020202020202020202020D7
:108D9C00202088101010101010101010101010102F
:108DAC00101004040404040404040404101010102F
:108DBC0010101041414141414101010101010101EA
:108DCC00010101010101010101010101011010105A
:108DDC0010101042424242424202020202020202BD
:108DEC00020202020202020202020202021010102D
:108DFC001020000000000000000000000000000037
:108E0C000000000000000000000000000000000056
:108E1C000000000000000000000000000000000046
:108E2C000000000000000000000000000000000036
:108E3C000000000000000000000000000000000026
:108E4C000000000000000000000000000000000016
:108E5C000000000000000000000000000000000006
:108E6C0000000000000000000000000000000000F6
:108E7C000000000019470B00294E0B00514E0B004F
:108E8C0015640B00F1700B0019740B002D740B00A2
:108E9C0025790B00897A0B0000000000000000000F
:048EAC0000000000C2
:108EB000040000001400000003000000474E5500AD
:108EC000FE9FDBA96B6353A6C003FE5F4D0649BC42
:048ED0007E034D646C
:048ED400000000009A
:108ED800020000000300000004000000948A0B0058
:108EE800AC8A0B00D08A0B00A8E503200000000024
:108EF800000000000000000000000000000000006A
:108F08000000000000000000000000000000000059
:108F18000000000000000000000000000000000049
:108F28000000000000000000000000000000000039
:108F38000000000000000000000000000000000029
:108F4800000000000000000000000000ECE7032023
:108F5800FFFFFFFF00000102030405060708090AD6
:108F68000B0C0D0E0F101112131415161718191AD1
:088F78001B1C1D1E1F20280018
:048F800078563412D9
:04000003B000401CED
:00000001FF
